{
  "contractName": "TrackingChain",
  "abi": [
    {
      "inputs": [],
      "payable": false,
      "stateMutability": "nonpayable",
      "type": "constructor"
    },
    {
      "anonymous": false,
      "inputs": [
        {
          "indexed": false,
          "internalType": "uint256",
          "name": "deliveryId",
          "type": "uint256"
        }
      ],
      "name": "Delivered",
      "type": "event"
    },
    {
      "anonymous": false,
      "inputs": [
        {
          "indexed": false,
          "internalType": "uint256",
          "name": "deliveryId",
          "type": "uint256"
        }
      ],
      "name": "InDelivery",
      "type": "event"
    },
    {
      "anonymous": false,
      "inputs": [
        {
          "indexed": false,
          "internalType": "uint256",
          "name": "deliveryId",
          "type": "uint256"
        }
      ],
      "name": "Prepared",
      "type": "event"
    },
    {
      "anonymous": false,
      "inputs": [
        {
          "indexed": false,
          "internalType": "uint256",
          "name": "deliveryId",
          "type": "uint256"
        }
      ],
      "name": "UpdatedPackageStatus",
      "type": "event"
    },
    {
      "constant": true,
      "inputs": [
        {
          "internalType": "uint256",
          "name": "",
          "type": "uint256"
        }
      ],
      "name": "deliveryIds",
      "outputs": [
        {
          "internalType": "uint256",
          "name": "",
          "type": "uint256"
        }
      ],
      "payable": false,
      "stateMutability": "view",
      "type": "function"
    },
    {
      "constant": false,
      "inputs": [
        {
          "internalType": "address",
          "name": "_delivererAddress",
          "type": "address"
        },
        {
          "internalType": "address",
          "name": "_receiverAddress",
          "type": "address"
        },
        {
          "internalType": "string",
          "name": "_localisation",
          "type": "string"
        },
        {
          "internalType": "string",
          "name": "_info",
          "type": "string"
        }
      ],
      "name": "prepareDelivery",
      "outputs": [
        {
          "internalType": "uint256",
          "name": "",
          "type": "uint256"
        }
      ],
      "payable": false,
      "stateMutability": "nonpayable",
      "type": "function"
    },
    {
      "constant": false,
      "inputs": [
        {
          "internalType": "uint256",
          "name": "_deliveryId",
          "type": "uint256"
        },
        {
          "internalType": "string",
          "name": "_localisation",
          "type": "string"
        },
        {
          "internalType": "string",
          "name": "_info",
          "type": "string"
        }
      ],
      "name": "updateDeliveryStatus",
      "outputs": [],
      "payable": false,
      "stateMutability": "nonpayable",
      "type": "function"
    },
    {
      "constant": false,
      "inputs": [
        {
          "internalType": "uint256",
          "name": "_deliveryId",
          "type": "uint256"
        },
        {
          "internalType": "string",
          "name": "_localisation",
          "type": "string"
        },
        {
          "internalType": "string",
          "name": "_info",
          "type": "string"
        }
      ],
      "name": "deliveredStatus",
      "outputs": [],
      "payable": false,
      "stateMutability": "nonpayable",
      "type": "function"
    },
    {
      "constant": true,
      "inputs": [],
      "name": "getDeliveryIds",
      "outputs": [
        {
          "internalType": "uint256[]",
          "name": "",
          "type": "uint256[]"
        }
      ],
      "payable": false,
      "stateMutability": "view",
      "type": "function"
    },
    {
      "constant": true,
      "inputs": [
        {
          "internalType": "uint256",
          "name": "_deliveryId",
          "type": "uint256"
        }
      ],
      "name": "getStatusIdsForDelivery",
      "outputs": [
        {
          "internalType": "uint256[]",
          "name": "",
          "type": "uint256[]"
        }
      ],
      "payable": false,
      "stateMutability": "view",
      "type": "function"
    },
    {
      "constant": true,
      "inputs": [
        {
          "internalType": "uint256",
          "name": "_deliveryId",
          "type": "uint256"
        }
      ],
      "name": "getLastStatusIdsForDelivery",
      "outputs": [
        {
          "components": [
            {
              "internalType": "uint256",
              "name": "statusId",
              "type": "uint256"
            },
            {
              "internalType": "enum TrackingChain.Status",
              "name": "status",
              "type": "uint8"
            },
            {
              "internalType": "uint256",
              "name": "time",
              "type": "uint256"
            },
            {
              "internalType": "string",
              "name": "localisation",
              "type": "string"
            },
            {
              "internalType": "string",
              "name": "info",
              "type": "string"
            }
          ],
          "internalType": "struct TrackingChain.DeliveryStatus",
          "name": "",
          "type": "tuple"
        }
      ],
      "payable": false,
      "stateMutability": "view",
      "type": "function"
    },
    {
      "constant": true,
      "inputs": [
        {
          "internalType": "uint256",
          "name": "_deliveryId",
          "type": "uint256"
        },
        {
          "internalType": "uint256",
          "name": "_statusId",
          "type": "uint256"
        }
      ],
      "name": "returnStatus",
      "outputs": [
        {
          "components": [
            {
              "internalType": "uint256",
              "name": "statusId",
              "type": "uint256"
            },
            {
              "internalType": "enum TrackingChain.Status",
              "name": "status",
              "type": "uint8"
            },
            {
              "internalType": "uint256",
              "name": "time",
              "type": "uint256"
            },
            {
              "internalType": "string",
              "name": "localisation",
              "type": "string"
            },
            {
              "internalType": "string",
              "name": "info",
              "type": "string"
            }
          ],
          "internalType": "struct TrackingChain.DeliveryStatus",
          "name": "",
          "type": "tuple"
        }
      ],
      "payable": false,
      "stateMutability": "view",
      "type": "function"
    }
  ],
  "bytecode": "0x608060405234801561001057600080fd5b50336000806101000a81548173ffffffffffffffffffffffffffffffffffffffff021916908373ffffffffffffffffffffffffffffffffffffffff1602179055506112d2806100606000396000f3fe608060405234801561001057600080fd5b50600436106100885760003560e01c8063a969815d1161005b578063a969815d1461014d578063b1af248c14610169578063b81f921e14610199578063d0cc4db4146101b557610088565b80630f1d66011461008d5780632e4d2f21146100bd5780637849a003146100ed57806378835dd91461011d575b600080fd5b6100a760048036036100a29190810190610efe565b6101d3565b6040516100b491906110b5565b60405180910390f35b6100d760048036036100d29190810190610e56565b61039a565b6040516100e49190611093565b60405180910390f35b61010760048036036101029190810190610e56565b610408565b60405161011491906110b5565b60405180910390f35b61013760048036036101329190810190610e56565b610647565b60405161014491906110d7565b60405180910390f35b61016760048036036101629190810190610e7f565b610668565b005b610183600480360361017e9190810190610dc3565b6107f4565b60405161019091906110d7565b60405180910390f35b6101b360048036036101ae9190810190610e7f565b610a83565b005b6101bd610c0e565b6040516101ca9190611093565b60405180910390f35b6101db610c66565b6002600084815260200190815260200160002060030160008381526020019081526020016000206040518060a0016040529081600082015481526020016001820160009054906101000a900460ff16600281111561023557fe5b600281111561024057fe5b815260200160028201548152602001600382018054600181600116156101000203166002900480601f0160208091040260200160405190810160405280929190818152602001828054600181600116156101000203166002900480156102e75780601f106102bc576101008083540402835291602001916102e7565b820191906000526020600020905b8154815290600101906020018083116102ca57829003601f168201915b50505050508152602001600482018054600181600116156101000203166002900480601f0160208091040260200160405190810160405280929190818152602001828054600181600116156101000203166002900480156103895780601f1061035e57610100808354040283529160200191610389565b820191906000526020600020905b81548152906001019060200180831161036c57829003601f168201915b505050505081525050905092915050565b6060600260008381526020019081526020016000206004018054806020026020016040519081016040528092919081815260200182805480156103fc57602002820191906000526020600020905b8154815260200190600101908083116103e8575b50505050509050919050565b610410610c66565b600080905060006002600085815260200190815260200160002060040180549050111561045757600160026000858152602001908152602001600020600401805490500390505b600060026000858152602001908152602001600020600401828154811061047a57fe5b906000526020600020015490506002600085815260200190815260200160002060030160008281526020019081526020016000206040518060a0016040529081600082015481526020016001820160009054906101000a900460ff1660028111156104e157fe5b60028111156104ec57fe5b815260200160028201548152602001600382018054600181600116156101000203166002900480601f0160208091040260200160405190810160405280929190818152602001828054600181600116156101000203166002900480156105935780601f1061056857610100808354040283529160200191610593565b820191906000526020600020905b81548152906001019060200180831161057657829003601f168201915b50505050508152602001600482018054600181600116156101000203166002900480601f0160208091040260200160405190810160405280929190818152602001828054600181600116156101000203166002900480156106355780601f1061060a57610100808354040283529160200191610635565b820191906000526020600020905b81548152906001019060200180831161061857829003601f168201915b50505050508152505092505050919050565b6001818154811061065457fe5b906000526020600020016000915090505481565b600060026000858152602001908152602001600020600401805490509050600260008581526020019081526020016000206004018190806001815401808255809150509060018203906000526020600020016000909192909190915055508060026000868152602001908152602001600020600301600083815260200190815260200160002060000181905550600160026000868152602001908152602001600020600301600083815260200190815260200160002060010160006101000a81548160ff0219169083600281111561073c57fe5b021790555042600260008681526020019081526020016000206003016000838152602001908152602001600020600201819055508260026000868152602001908152602001600020600301600083815260200190815260200160002060030190805190602001906107ae929190610ca0565b508160026000868152602001908152602001600020600301600083815260200190815260200160002060040190805190602001906107ed929190610ca0565b5050505050565b6000806001805490509050806002600083815260200190815260200160002060000181905550856002600083815260200190815260200160002060010160006101000a81548173ffffffffffffffffffffffffffffffffffffffff021916908373ffffffffffffffffffffffffffffffffffffffff160217905550846002600083815260200190815260200160002060020160006101000a81548173ffffffffffffffffffffffffffffffffffffffff021916908373ffffffffffffffffffffffffffffffffffffffff1602179055506001819080600181540180825580915050906001820390600052602060002001600090919290919091505550600060026000838152602001908152602001600020600401805490509050600260008381526020019081526020016000206004018190806001815401808255809150509060018203906000526020600020016000909192909190915055508060026000848152602001908152602001600020600301600083815260200190815260200160002060000181905550600060026000848152602001908152602001600020600301600083815260200190815260200160002060010160006101000a81548160ff021916908360028111156109c457fe5b02179055504260026000848152602001908152602001600020600301600083815260200190815260200160002060020181905550846002600084815260200190815260200160002060030160008381526020019081526020016000206003019080519060200190610a36929190610ca0565b50836002600084815260200190815260200160002060030160008381526020019081526020016000206004019080519060200190610a75929190610ca0565b508192505050949350505050565b6000600260008581526020019081526020016000206004018054905090506002600085815260200190815260200160002060040181908060018154018082558091505090600182039060005260206000200160009091929091909150555080600260008681526020019081526020016000206003016000838152602001908152602001600020600001819055506002806000868152602001908152602001600020600301600083815260200190815260200160002060010160006101000a81548160ff02191690836002811115610b5657fe5b02179055504260026000868152602001908152602001600020600301600083815260200190815260200160002060020181905550826002600086815260200190815260200160002060030160008381526020019081526020016000206003019080519060200190610bc8929190610ca0565b50816002600086815260200190815260200160002060030160008381526020019081526020016000206004019080519060200190610c07929190610ca0565b5050505050565b60606001805480602002602001604051908101604052809291908181526020018280548015610c5c57602002820191906000526020600020905b815481526020019060010190808311610c48575b5050505050905090565b6040518060a001604052806000815260200160006002811115610c8557fe5b81526020016000815260200160608152602001606081525090565b828054600181600116156101000203166002900490600052602060002090601f016020900481019282601f10610ce157805160ff1916838001178555610d0f565b82800160010185558215610d0f579182015b82811115610d0e578251825591602001919060010190610cf3565b5b509050610d1c9190610d20565b5090565b610d4291905b80821115610d3e576000816000905550600101610d26565b5090565b90565b600081359050610d5481611261565b92915050565b600082601f830112610d6b57600080fd5b8135610d7e610d798261111f565b6110f2565b91508082526020830160208301858383011115610d9a57600080fd5b610da5838284611201565b50505092915050565b600081359050610dbd81611278565b92915050565b60008060008060808587031215610dd957600080fd5b6000610de787828801610d45565b9450506020610df887828801610d45565b935050604085013567ffffffffffffffff811115610e1557600080fd5b610e2187828801610d5a565b925050606085013567ffffffffffffffff811115610e3e57600080fd5b610e4a87828801610d5a565b91505092959194509250565b600060208284031215610e6857600080fd5b6000610e7684828501610dae565b91505092915050565b600080600060608486031215610e9457600080fd5b6000610ea286828701610dae565b935050602084013567ffffffffffffffff811115610ebf57600080fd5b610ecb86828701610d5a565b925050604084013567ffffffffffffffff811115610ee857600080fd5b610ef486828701610d5a565b9150509250925092565b60008060408385031215610f1157600080fd5b6000610f1f85828601610dae565b9250506020610f3085828601610dae565b9150509250929050565b6000610f468383611075565b60208301905092915050565b6000610f5d8261115b565b610f67818561117e565b9350610f728361114b565b8060005b83811015610fa3578151610f8a8882610f3a565b9750610f9583611171565b925050600181019050610f76565b5085935050505092915050565b610fb9816111ef565b82525050565b6000610fca82611166565b610fd4818561118f565b9350610fe4818560208601611210565b610fed81611243565b840191505092915050565b600060a0830160008301516110106000860182611075565b5060208301516110236020860182610fb0565b5060408301516110366040860182611075565b506060830151848203606086015261104e8282610fbf565b915050608083015184820360808601526110688282610fbf565b9150508091505092915050565b61107e816111e5565b82525050565b61108d816111e5565b82525050565b600060208201905081810360008301526110ad8184610f52565b905092915050565b600060208201905081810360008301526110cf8184610ff8565b905092915050565b60006020820190506110ec6000830184611084565b92915050565b6000604051905081810181811067ffffffffffffffff8211171561111557600080fd5b8060405250919050565b600067ffffffffffffffff82111561113657600080fd5b601f19601f8301169050602081019050919050565b6000819050602082019050919050565b600081519050919050565b600081519050919050565b6000602082019050919050565b600082825260208201905092915050565b600082825260208201905092915050565b60006111ab826111c5565b9050919050565b60008190506111c082611254565b919050565b600073ffffffffffffffffffffffffffffffffffffffff82169050919050565b6000819050919050565b60006111fa826111b2565b9050919050565b82818337600083830152505050565b60005b8381101561122e578082015181840152602081019050611213565b8381111561123d576000848401525b50505050565b6000601f19601f8301169050919050565b6003811061125e57fe5b50565b61126a816111a0565b811461127557600080fd5b50565b611281816111e5565b811461128c57600080fd5b5056fea365627a7a72315820498c88641cc8f5733ceb946ad0dc359649cb9f683949cce4e1d2f02cdb5bbab46c6578706572696d656e74616cf564736f6c63430005100040",
  "source": "pragma solidity ^0.5.0;\r\npragma experimental ABIEncoderV2;\r\n\r\ncontract TrackingChain {\r\n    address owner;\r\n\r\n    constructor() public {\r\n        owner = msg.sender;\r\n    }\r\n\r\n    enum Status {\r\n        Prepared, //delivery is prepared to receive by deliverer\r\n        InDelivery, //deliverer took package\r\n        Delivered //delivery is ready to pick up\r\n    }\r\n\r\n    struct Delivery {\r\n        uint deliveryId;\r\n        address delivererAddress;\r\n        address receiverAddress;\r\n        mapping(uint => DeliveryStatus) deliveryStatus;\r\n        uint[] deliveryStatusIds;\r\n    }\r\n\r\n    struct DeliveryStatus {\r\n        uint statusId;\r\n        Status status;\r\n        uint time;\r\n        string localisation;\r\n        string info;\r\n    }\r\n\r\n    uint[] public deliveryIds;\r\n\r\n    mapping(uint => Delivery) deliveries;\r\n\r\n    event Prepared(uint deliveryId);\r\n    event InDelivery(uint deliveryId);\r\n    event UpdatedPackageStatus(uint deliveryId);\r\n    event Delivered(uint deliveryId);\r\n\r\n    function prepareDelivery(address _delivererAddress, address _receiverAddress, string memory _localisation, string memory _info) public returns(uint){\r\n        uint _deliveryId = deliveryIds.length;\r\n\r\n        deliveries[_deliveryId].deliveryId = _deliveryId;\r\n        deliveries[_deliveryId].delivererAddress = _delivererAddress;\r\n        deliveries[_deliveryId].receiverAddress = _receiverAddress;\r\n        deliveryIds.push(_deliveryId);\r\n\r\n        uint _statusId = deliveries[_deliveryId].deliveryStatusIds.length;\r\n        deliveries[_deliveryId].deliveryStatusIds.push(_statusId);\r\n        deliveries[_deliveryId].deliveryStatus[_statusId].statusId = _statusId;\r\n        deliveries[_deliveryId].deliveryStatus[_statusId].status = Status.Prepared;\r\n        deliveries[_deliveryId].deliveryStatus[_statusId].time = block.timestamp;\r\n        deliveries[_deliveryId].deliveryStatus[_statusId].localisation = _localisation;\r\n        deliveries[_deliveryId].deliveryStatus[_statusId].info = _info;\r\n\r\n        return _deliveryId;\r\n    }\r\n\r\n    function updateDeliveryStatus(uint _deliveryId, string memory _localisation, string memory _info) public{\r\n        uint _statusId = deliveries[_deliveryId].deliveryStatusIds.length;\r\n        deliveries[_deliveryId].deliveryStatusIds.push(_statusId);\r\n        deliveries[_deliveryId].deliveryStatus[_statusId].statusId = _statusId;\r\n        deliveries[_deliveryId].deliveryStatus[_statusId].status = Status.InDelivery;\r\n        deliveries[_deliveryId].deliveryStatus[_statusId].time = block.timestamp;\r\n        deliveries[_deliveryId].deliveryStatus[_statusId].localisation = _localisation;\r\n        deliveries[_deliveryId].deliveryStatus[_statusId].info = _info;\r\n    }\r\n\r\n    function deliveredStatus(uint _deliveryId, string memory _localisation, string memory _info) public {\r\n        uint _statusId = deliveries[_deliveryId].deliveryStatusIds.length;\r\n        deliveries[_deliveryId].deliveryStatusIds.push(_statusId);\r\n        deliveries[_deliveryId].deliveryStatus[_statusId].statusId = _statusId;\r\n        deliveries[_deliveryId].deliveryStatus[_statusId].status = Status.Delivered;\r\n        deliveries[_deliveryId].deliveryStatus[_statusId].time = block.timestamp;\r\n        deliveries[_deliveryId].deliveryStatus[_statusId].localisation = _localisation;\r\n        deliveries[_deliveryId].deliveryStatus[_statusId].info = _info;\r\n    }\r\n\r\n    function getDeliveryIds() public view returns(uint[] memory) {\r\n        return deliveryIds;\r\n    }\r\n\r\n    function getStatusIdsForDelivery(uint _deliveryId) public view returns(uint[] memory) {\r\n        return deliveries[_deliveryId].deliveryStatusIds;\r\n    }\r\n\r\n    function getLastStatusIdsForDelivery(uint _deliveryId) public view returns(DeliveryStatus memory) {\r\n        uint id = 0;\r\n        if(deliveries[_deliveryId].deliveryStatusIds.length > 0) {\r\n            id = deliveries[_deliveryId].deliveryStatusIds.length-1;\r\n        }\r\n        uint statusId = deliveries[_deliveryId].deliveryStatusIds[id];\r\n        return deliveries[_deliveryId].deliveryStatus[statusId];\r\n    }\r\n\r\n    function returnStatus(uint _deliveryId, uint _statusId) public view returns(DeliveryStatus memory){\r\n        return deliveries[_deliveryId].deliveryStatus[_statusId];\r\n    }\r\n}",
  "sourcePath": "D:\\Magisterka\\tracking-package\\contracts\\TrackingChain.sol",
  "compiler": {
    "name": "solc",
    "version": "0.5.16+commit.9c3226ce.Emscripten.clang"
  },
  "schemaVersion": "3.0.23",
  "updatedAt": "2022-05-07T20:02:01.019Z",
  "devdoc": {
    "methods": {}
  },
  "userdoc": {
    "methods": {}
  }
}