{
  "contractName": "TrackingChain",
  "abi": [
    {
      "inputs": [],
      "payable": false,
      "stateMutability": "nonpayable",
      "type": "constructor"
    },
    {
      "anonymous": false,
      "inputs": [
        {
          "indexed": false,
          "internalType": "uint256",
          "name": "deliveryId",
          "type": "uint256"
        }
      ],
      "name": "Delivered",
      "type": "event"
    },
    {
      "anonymous": false,
      "inputs": [
        {
          "indexed": false,
          "internalType": "uint256",
          "name": "deliveryId",
          "type": "uint256"
        }
      ],
      "name": "InDelivery",
      "type": "event"
    },
    {
      "anonymous": false,
      "inputs": [
        {
          "indexed": false,
          "internalType": "uint256",
          "name": "deliveryId",
          "type": "uint256"
        }
      ],
      "name": "Prepared",
      "type": "event"
    },
    {
      "anonymous": false,
      "inputs": [
        {
          "indexed": false,
          "internalType": "uint256",
          "name": "deliveryId",
          "type": "uint256"
        }
      ],
      "name": "UpdatedPackageStatus",
      "type": "event"
    },
    {
      "constant": true,
      "inputs": [
        {
          "internalType": "uint256",
          "name": "",
          "type": "uint256"
        }
      ],
      "name": "deliveryIds",
      "outputs": [
        {
          "internalType": "uint256",
          "name": "",
          "type": "uint256"
        }
      ],
      "payable": false,
      "stateMutability": "view",
      "type": "function"
    },
    {
      "constant": false,
      "inputs": [
        {
          "internalType": "address",
          "name": "_receiverAddress",
          "type": "address"
        },
        {
          "internalType": "string",
          "name": "_localisation",
          "type": "string"
        },
        {
          "internalType": "string",
          "name": "_info",
          "type": "string"
        }
      ],
      "name": "prepareDelivery",
      "outputs": [
        {
          "internalType": "uint256",
          "name": "",
          "type": "uint256"
        }
      ],
      "payable": false,
      "stateMutability": "nonpayable",
      "type": "function"
    },
    {
      "constant": false,
      "inputs": [
        {
          "internalType": "uint256",
          "name": "_deliveryId",
          "type": "uint256"
        },
        {
          "internalType": "string",
          "name": "_localisation",
          "type": "string"
        },
        {
          "internalType": "string",
          "name": "_info",
          "type": "string"
        }
      ],
      "name": "updateDeliveryStatus",
      "outputs": [],
      "payable": false,
      "stateMutability": "nonpayable",
      "type": "function"
    },
    {
      "constant": false,
      "inputs": [
        {
          "internalType": "uint256",
          "name": "_deliveryId",
          "type": "uint256"
        },
        {
          "internalType": "string",
          "name": "_localisation",
          "type": "string"
        },
        {
          "internalType": "string",
          "name": "_info",
          "type": "string"
        }
      ],
      "name": "deliveredStatus",
      "outputs": [],
      "payable": false,
      "stateMutability": "nonpayable",
      "type": "function"
    },
    {
      "constant": true,
      "inputs": [],
      "name": "getDeliveryIds",
      "outputs": [
        {
          "internalType": "uint256[]",
          "name": "",
          "type": "uint256[]"
        }
      ],
      "payable": false,
      "stateMutability": "view",
      "type": "function"
    },
    {
      "constant": true,
      "inputs": [],
      "name": "getReceiverDeliveryIds",
      "outputs": [
        {
          "internalType": "uint256[]",
          "name": "",
          "type": "uint256[]"
        }
      ],
      "payable": false,
      "stateMutability": "view",
      "type": "function"
    },
    {
      "constant": true,
      "inputs": [],
      "name": "getDelivererDeliveryIds",
      "outputs": [
        {
          "internalType": "uint256[]",
          "name": "",
          "type": "uint256[]"
        }
      ],
      "payable": false,
      "stateMutability": "view",
      "type": "function"
    },
    {
      "constant": true,
      "inputs": [
        {
          "internalType": "uint256",
          "name": "_deliveryId",
          "type": "uint256"
        }
      ],
      "name": "getStatusIdsForDelivery",
      "outputs": [
        {
          "internalType": "uint256[]",
          "name": "",
          "type": "uint256[]"
        }
      ],
      "payable": false,
      "stateMutability": "view",
      "type": "function"
    },
    {
      "constant": true,
      "inputs": [
        {
          "internalType": "uint256",
          "name": "_deliveryId",
          "type": "uint256"
        }
      ],
      "name": "getLastStatusIdsForDelivery",
      "outputs": [
        {
          "components": [
            {
              "internalType": "uint256",
              "name": "statusId",
              "type": "uint256"
            },
            {
              "internalType": "enum TrackingChain.Status",
              "name": "status",
              "type": "uint8"
            },
            {
              "internalType": "uint256",
              "name": "time",
              "type": "uint256"
            },
            {
              "internalType": "string",
              "name": "localisation",
              "type": "string"
            },
            {
              "internalType": "string",
              "name": "info",
              "type": "string"
            }
          ],
          "internalType": "struct TrackingChain.DeliveryStatus",
          "name": "",
          "type": "tuple"
        }
      ],
      "payable": false,
      "stateMutability": "view",
      "type": "function"
    },
    {
      "constant": true,
      "inputs": [
        {
          "internalType": "uint256",
          "name": "_deliveryId",
          "type": "uint256"
        },
        {
          "internalType": "uint256",
          "name": "_statusId",
          "type": "uint256"
        }
      ],
      "name": "returnStatus",
      "outputs": [
        {
          "components": [
            {
              "internalType": "uint256",
              "name": "statusId",
              "type": "uint256"
            },
            {
              "internalType": "enum TrackingChain.Status",
              "name": "status",
              "type": "uint8"
            },
            {
              "internalType": "uint256",
              "name": "time",
              "type": "uint256"
            },
            {
              "internalType": "string",
              "name": "localisation",
              "type": "string"
            },
            {
              "internalType": "string",
              "name": "info",
              "type": "string"
            }
          ],
          "internalType": "struct TrackingChain.DeliveryStatus",
          "name": "",
          "type": "tuple"
        }
      ],
      "payable": false,
      "stateMutability": "view",
      "type": "function"
    }
  ],
  "bytecode": "0x608060405234801561001057600080fd5b50336000806101000a81548173ffffffffffffffffffffffffffffffffffffffff021916908373ffffffffffffffffffffffffffffffffffffffff16021790555061150b806100606000396000f3fe608060405234801561001057600080fd5b506004361061009e5760003560e01c806378835dd91161006657806378835dd914610181578063981521de146101b1578063a969815d146101cf578063b81f921e146101eb578063d0cc4db4146102075761009e565b80630f1d6601146100a35780631a3548a5146100d3578063279780fc146100f15780632e4d2f21146101215780637849a00314610151575b600080fd5b6100bd60048036036100b89190810190611137565b610225565b6040516100ca91906112ee565b60405180910390f35b6100db6103ec565b6040516100e891906112cc565b60405180910390f35b61010b60048036036101069190810190611010565b610481565b6040516101189190611310565b60405180910390f35b61013b6004803603610136919081019061108f565b6107e1565b60405161014891906112cc565b60405180910390f35b61016b6004803603610166919081019061108f565b61084f565b60405161017891906112ee565b60405180910390f35b61019b6004803603610196919081019061108f565b610a8e565b6040516101a89190611310565b60405180910390f35b6101b9610aaf565b6040516101c691906112cc565b60405180910390f35b6101e960048036036101e491908101906110b8565b610b44565b005b610205600480360361020091908101906110b8565b610cd0565b005b61020f610e5b565b60405161021c91906112cc565b60405180910390f35b61022d610eb3565b6002600084815260200190815260200160002060030160008381526020019081526020016000206040518060a0016040529081600082015481526020016001820160009054906101000a900460ff16600281111561028757fe5b600281111561029257fe5b815260200160028201548152602001600382018054600181600116156101000203166002900480601f0160208091040260200160405190810160405280929190818152602001828054600181600116156101000203166002900480156103395780601f1061030e57610100808354040283529160200191610339565b820191906000526020600020905b81548152906001019060200180831161031c57829003601f168201915b50505050508152602001600482018054600181600116156101000203166002900480601f0160208091040260200160405190810160405280929190818152602001828054600181600116156101000203166002900480156103db5780601f106103b0576101008083540402835291602001916103db565b820191906000526020600020905b8154815290600101906020018083116103be57829003601f168201915b505050505081525050905092915050565b6060600360003373ffffffffffffffffffffffffffffffffffffffff1673ffffffffffffffffffffffffffffffffffffffff16815260200190815260200160002080548060200260200160405190810160405280929190818152602001828054801561047757602002820191906000526020600020905b815481526020019060010190808311610463575b5050505050905090565b6000806001805490509050806002600083815260200190815260200160002060000181905550336002600083815260200190815260200160002060010160006101000a81548173ffffffffffffffffffffffffffffffffffffffff021916908373ffffffffffffffffffffffffffffffffffffffff160217905550846002600083815260200190815260200160002060020160006101000a81548173ffffffffffffffffffffffffffffffffffffffff021916908373ffffffffffffffffffffffffffffffffffffffff1602179055506001819080600181540180825580915050906001820390600052602060002001600090919290919091505550600060026000838152602001908152602001600020600401805490509050600260008381526020019081526020016000206004018190806001815401808255809150509060018203906000526020600020016000909192909190915055508060026000848152602001908152602001600020600301600083815260200190815260200160002060000181905550600060026000848152602001908152602001600020600301600083815260200190815260200160002060010160006101000a81548160ff0219169083600281111561065157fe5b021790555042600260008481526020019081526020016000206003016000838152602001908152602001600020600201819055508460026000848152602001908152602001600020600301600083815260200190815260200160002060030190805190602001906106c3929190610eed565b50836002600084815260200190815260200160002060030160008381526020019081526020016000206004019080519060200190610702929190610eed565b50600360003373ffffffffffffffffffffffffffffffffffffffff1673ffffffffffffffffffffffffffffffffffffffff168152602001908152602001600020829080600181540180825580915050906001820390600052602060002001600090919290919091505550600460008773ffffffffffffffffffffffffffffffffffffffff1673ffffffffffffffffffffffffffffffffffffffff16815260200190815260200160002082908060018154018082558091505090600182039060005260206000200160009091929091909150555081925050509392505050565b60606002600083815260200190815260200160002060040180548060200260200160405190810160405280929190818152602001828054801561084357602002820191906000526020600020905b81548152602001906001019080831161082f575b50505050509050919050565b610857610eb3565b600080905060006002600085815260200190815260200160002060040180549050111561089e57600160026000858152602001908152602001600020600401805490500390505b60006002600085815260200190815260200160002060040182815481106108c157fe5b906000526020600020015490506002600085815260200190815260200160002060030160008281526020019081526020016000206040518060a0016040529081600082015481526020016001820160009054906101000a900460ff16600281111561092857fe5b600281111561093357fe5b815260200160028201548152602001600382018054600181600116156101000203166002900480601f0160208091040260200160405190810160405280929190818152602001828054600181600116156101000203166002900480156109da5780601f106109af576101008083540402835291602001916109da565b820191906000526020600020905b8154815290600101906020018083116109bd57829003601f168201915b50505050508152602001600482018054600181600116156101000203166002900480601f016020809104026020016040519081016040528092919081815260200182805460018160011615610100020316600290048015610a7c5780601f10610a5157610100808354040283529160200191610a7c565b820191906000526020600020905b815481529060010190602001808311610a5f57829003601f168201915b50505050508152505092505050919050565b60018181548110610a9b57fe5b906000526020600020016000915090505481565b6060600460003373ffffffffffffffffffffffffffffffffffffffff1673ffffffffffffffffffffffffffffffffffffffff168152602001908152602001600020805480602002602001604051908101604052809291908181526020018280548015610b3a57602002820191906000526020600020905b815481526020019060010190808311610b26575b5050505050905090565b600060026000858152602001908152602001600020600401805490509050600260008581526020019081526020016000206004018190806001815401808255809150509060018203906000526020600020016000909192909190915055508060026000868152602001908152602001600020600301600083815260200190815260200160002060000181905550600160026000868152602001908152602001600020600301600083815260200190815260200160002060010160006101000a81548160ff02191690836002811115610c1857fe5b02179055504260026000868152602001908152602001600020600301600083815260200190815260200160002060020181905550826002600086815260200190815260200160002060030160008381526020019081526020016000206003019080519060200190610c8a929190610eed565b50816002600086815260200190815260200160002060030160008381526020019081526020016000206004019080519060200190610cc9929190610eed565b5050505050565b6000600260008581526020019081526020016000206004018054905090506002600085815260200190815260200160002060040181908060018154018082558091505090600182039060005260206000200160009091929091909150555080600260008681526020019081526020016000206003016000838152602001908152602001600020600001819055506002806000868152602001908152602001600020600301600083815260200190815260200160002060010160006101000a81548160ff02191690836002811115610da357fe5b02179055504260026000868152602001908152602001600020600301600083815260200190815260200160002060020181905550826002600086815260200190815260200160002060030160008381526020019081526020016000206003019080519060200190610e15929190610eed565b50816002600086815260200190815260200160002060030160008381526020019081526020016000206004019080519060200190610e54929190610eed565b5050505050565b60606001805480602002602001604051908101604052809291908181526020018280548015610ea957602002820191906000526020600020905b815481526020019060010190808311610e95575b5050505050905090565b6040518060a001604052806000815260200160006002811115610ed257fe5b81526020016000815260200160608152602001606081525090565b828054600181600116156101000203166002900490600052602060002090601f016020900481019282601f10610f2e57805160ff1916838001178555610f5c565b82800160010185558215610f5c579182015b82811115610f5b578251825591602001919060010190610f40565b5b509050610f699190610f6d565b5090565b610f8f91905b80821115610f8b576000816000905550600101610f73565b5090565b90565b600081359050610fa18161149a565b92915050565b600082601f830112610fb857600080fd5b8135610fcb610fc682611358565b61132b565b91508082526020830160208301858383011115610fe757600080fd5b610ff283828461143a565b50505092915050565b60008135905061100a816114b1565b92915050565b60008060006060848603121561102557600080fd5b600061103386828701610f92565b935050602084013567ffffffffffffffff81111561105057600080fd5b61105c86828701610fa7565b925050604084013567ffffffffffffffff81111561107957600080fd5b61108586828701610fa7565b9150509250925092565b6000602082840312156110a157600080fd5b60006110af84828501610ffb565b91505092915050565b6000806000606084860312156110cd57600080fd5b60006110db86828701610ffb565b935050602084013567ffffffffffffffff8111156110f857600080fd5b61110486828701610fa7565b925050604084013567ffffffffffffffff81111561112157600080fd5b61112d86828701610fa7565b9150509250925092565b6000806040838503121561114a57600080fd5b600061115885828601610ffb565b925050602061116985828601610ffb565b9150509250929050565b600061117f83836112ae565b60208301905092915050565b600061119682611394565b6111a081856113b7565b93506111ab83611384565b8060005b838110156111dc5781516111c38882611173565b97506111ce836113aa565b9250506001810190506111af565b5085935050505092915050565b6111f281611428565b82525050565b60006112038261139f565b61120d81856113c8565b935061121d818560208601611449565b6112268161147c565b840191505092915050565b600060a08301600083015161124960008601826112ae565b50602083015161125c60208601826111e9565b50604083015161126f60408601826112ae565b506060830151848203606086015261128782826111f8565b915050608083015184820360808601526112a182826111f8565b9150508091505092915050565b6112b78161141e565b82525050565b6112c68161141e565b82525050565b600060208201905081810360008301526112e6818461118b565b905092915050565b600060208201905081810360008301526113088184611231565b905092915050565b600060208201905061132560008301846112bd565b92915050565b6000604051905081810181811067ffffffffffffffff8211171561134e57600080fd5b8060405250919050565b600067ffffffffffffffff82111561136f57600080fd5b601f19601f8301169050602081019050919050565b6000819050602082019050919050565b600081519050919050565b600081519050919050565b6000602082019050919050565b600082825260208201905092915050565b600082825260208201905092915050565b60006113e4826113fe565b9050919050565b60008190506113f98261148d565b919050565b600073ffffffffffffffffffffffffffffffffffffffff82169050919050565b6000819050919050565b6000611433826113eb565b9050919050565b82818337600083830152505050565b60005b8381101561146757808201518184015260208101905061144c565b83811115611476576000848401525b50505050565b6000601f19601f8301169050919050565b6003811061149757fe5b50565b6114a3816113d9565b81146114ae57600080fd5b50565b6114ba8161141e565b81146114c557600080fd5b5056fea365627a7a72315820ca83e5e30cc910aac5ec2e8fb925a45858c5e98f24dd2c4565f91ede56c7a3ff6c6578706572696d656e74616cf564736f6c63430005100040",
  "source": "pragma solidity ^0.5.0;\r\npragma experimental ABIEncoderV2;\r\n\r\ncontract TrackingChain {\r\n    address owner;\r\n\r\n    constructor() public {\r\n        owner = msg.sender;\r\n    }\r\n\r\n    enum Status {\r\n        Prepared, //delivery is prepared to receive by deliverer\r\n        InDelivery, //deliverer took package\r\n        Delivered //delivery is ready to pick up\r\n    }\r\n\r\n    struct Delivery {\r\n        uint deliveryId;\r\n        address delivererAddress;\r\n        address receiverAddress;\r\n        mapping(uint => DeliveryStatus) deliveryStatus;\r\n        uint[] deliveryStatusIds;\r\n    }\r\n\r\n    struct DeliveryStatus {\r\n        uint statusId;\r\n        Status status;\r\n        uint time;\r\n        string localisation;\r\n        string info;\r\n    }\r\n\r\n    uint[] public deliveryIds;\r\n\r\n    mapping(uint => Delivery) deliveries;\r\n\r\n    mapping(address => uint[]) delivererDeliveries;\r\n    mapping(address => uint[]) receiverDeliveries;\r\n\r\n    event Prepared(uint deliveryId);\r\n    event InDelivery(uint deliveryId);\r\n    event UpdatedPackageStatus(uint deliveryId);\r\n    event Delivered(uint deliveryId);\r\n\r\n    function prepareDelivery(address _receiverAddress, string memory _localisation, string memory _info) public returns(uint){\r\n        uint _deliveryId = deliveryIds.length;\r\n\r\n        deliveries[_deliveryId].deliveryId = _deliveryId;\r\n        deliveries[_deliveryId].delivererAddress = msg.sender;\r\n        deliveries[_deliveryId].receiverAddress = _receiverAddress;\r\n        deliveryIds.push(_deliveryId);\r\n\r\n        uint _statusId = deliveries[_deliveryId].deliveryStatusIds.length;\r\n        deliveries[_deliveryId].deliveryStatusIds.push(_statusId);\r\n        deliveries[_deliveryId].deliveryStatus[_statusId].statusId = _statusId;\r\n        deliveries[_deliveryId].deliveryStatus[_statusId].status = Status.Prepared;\r\n        deliveries[_deliveryId].deliveryStatus[_statusId].time = block.timestamp;\r\n        deliveries[_deliveryId].deliveryStatus[_statusId].localisation = _localisation;\r\n        deliveries[_deliveryId].deliveryStatus[_statusId].info = _info;\r\n\r\n        delivererDeliveries[msg.sender].push(_deliveryId);\r\n        receiverDeliveries[_receiverAddress].push(_deliveryId);\r\n\r\n        return _deliveryId;\r\n    }\r\n\r\n    function updateDeliveryStatus(uint _deliveryId, string memory _localisation, string memory _info) public{\r\n        uint _statusId = deliveries[_deliveryId].deliveryStatusIds.length;\r\n        deliveries[_deliveryId].deliveryStatusIds.push(_statusId);\r\n        deliveries[_deliveryId].deliveryStatus[_statusId].statusId = _statusId;\r\n        deliveries[_deliveryId].deliveryStatus[_statusId].status = Status.InDelivery;\r\n        deliveries[_deliveryId].deliveryStatus[_statusId].time = block.timestamp;\r\n        deliveries[_deliveryId].deliveryStatus[_statusId].localisation = _localisation;\r\n        deliveries[_deliveryId].deliveryStatus[_statusId].info = _info;\r\n    }\r\n\r\n    function deliveredStatus(uint _deliveryId, string memory _localisation, string memory _info) public {\r\n        uint _statusId = deliveries[_deliveryId].deliveryStatusIds.length;\r\n        deliveries[_deliveryId].deliveryStatusIds.push(_statusId);\r\n        deliveries[_deliveryId].deliveryStatus[_statusId].statusId = _statusId;\r\n        deliveries[_deliveryId].deliveryStatus[_statusId].status = Status.Delivered;\r\n        deliveries[_deliveryId].deliveryStatus[_statusId].time = block.timestamp;\r\n        deliveries[_deliveryId].deliveryStatus[_statusId].localisation = _localisation;\r\n        deliveries[_deliveryId].deliveryStatus[_statusId].info = _info;\r\n    }\r\n\r\n    function getDeliveryIds() public view returns(uint[] memory) {\r\n        return deliveryIds;\r\n    }\r\n\r\n    function getReceiverDeliveryIds() public view returns(uint[] memory) {\r\n        return receiverDeliveries[msg.sender];\r\n    }\r\n\r\n    function getDelivererDeliveryIds() public view returns(uint[] memory) {\r\n        return delivererDeliveries[msg.sender];\r\n    }\r\n\r\n    function getStatusIdsForDelivery(uint _deliveryId) public view returns(uint[] memory) {\r\n        return deliveries[_deliveryId].deliveryStatusIds;\r\n    }\r\n\r\n    function getLastStatusIdsForDelivery(uint _deliveryId) public view returns(DeliveryStatus memory) {\r\n        uint id = 0;\r\n        if(deliveries[_deliveryId].deliveryStatusIds.length > 0) {\r\n            id = deliveries[_deliveryId].deliveryStatusIds.length-1;\r\n        }\r\n        uint statusId = deliveries[_deliveryId].deliveryStatusIds[id];\r\n        return deliveries[_deliveryId].deliveryStatus[statusId];\r\n    }\r\n\r\n    function returnStatus(uint _deliveryId, uint _statusId) public view returns(DeliveryStatus memory){\r\n        return deliveries[_deliveryId].deliveryStatus[_statusId];\r\n    }\r\n}",
  "sourcePath": "D:\\Magisterka\\tracking-package\\contracts\\TrackingChain.sol",
  "compiler": {
    "name": "solc",
    "version": "0.5.16+commit.9c3226ce.Emscripten.clang"
  },
  "schemaVersion": "3.0.23",
  "updatedAt": "2022-05-08T13:07:31.244Z",
  "devdoc": {
    "methods": {}
  },
  "userdoc": {
    "methods": {}
  }
}