{
  "contractName": "TrackingChain",
  "abi": [
    {
      "inputs": [],
      "payable": false,
      "stateMutability": "nonpayable",
      "type": "constructor"
    },
    {
      "anonymous": false,
      "inputs": [
        {
          "indexed": false,
          "internalType": "uint256",
          "name": "deliveryId",
          "type": "uint256"
        }
      ],
      "name": "Delivered",
      "type": "event"
    },
    {
      "anonymous": false,
      "inputs": [
        {
          "indexed": false,
          "internalType": "uint256",
          "name": "deliveryId",
          "type": "uint256"
        }
      ],
      "name": "InDelivery",
      "type": "event"
    },
    {
      "anonymous": false,
      "inputs": [
        {
          "indexed": false,
          "internalType": "uint256",
          "name": "deliveryId",
          "type": "uint256"
        }
      ],
      "name": "Prepared",
      "type": "event"
    },
    {
      "anonymous": false,
      "inputs": [
        {
          "indexed": false,
          "internalType": "uint256",
          "name": "deliveryId",
          "type": "uint256"
        }
      ],
      "name": "UpdatedPackageStatus",
      "type": "event"
    },
    {
      "constant": true,
      "inputs": [
        {
          "internalType": "uint256",
          "name": "",
          "type": "uint256"
        }
      ],
      "name": "deliveryIds",
      "outputs": [
        {
          "internalType": "uint256",
          "name": "",
          "type": "uint256"
        }
      ],
      "payable": false,
      "stateMutability": "view",
      "type": "function"
    },
    {
      "constant": false,
      "inputs": [
        {
          "internalType": "address",
          "name": "_delivererAddress",
          "type": "address"
        },
        {
          "internalType": "address",
          "name": "_receiverAddress",
          "type": "address"
        },
        {
          "internalType": "string",
          "name": "_localisation",
          "type": "string"
        },
        {
          "internalType": "string",
          "name": "_info",
          "type": "string"
        }
      ],
      "name": "prepareDelivery",
      "outputs": [
        {
          "internalType": "uint256",
          "name": "",
          "type": "uint256"
        }
      ],
      "payable": false,
      "stateMutability": "nonpayable",
      "type": "function"
    },
    {
      "constant": false,
      "inputs": [
        {
          "internalType": "uint256",
          "name": "_deliveryId",
          "type": "uint256"
        },
        {
          "internalType": "string",
          "name": "_localisation",
          "type": "string"
        },
        {
          "internalType": "string",
          "name": "_info",
          "type": "string"
        }
      ],
      "name": "updateDeliveryStatus",
      "outputs": [],
      "payable": false,
      "stateMutability": "nonpayable",
      "type": "function"
    },
    {
      "constant": false,
      "inputs": [
        {
          "internalType": "uint256",
          "name": "_deliveryId",
          "type": "uint256"
        },
        {
          "internalType": "string",
          "name": "_localisation",
          "type": "string"
        },
        {
          "internalType": "string",
          "name": "_info",
          "type": "string"
        }
      ],
      "name": "deliveredStatus",
      "outputs": [],
      "payable": false,
      "stateMutability": "nonpayable",
      "type": "function"
    },
    {
      "constant": true,
      "inputs": [],
      "name": "getDeliveryIds",
      "outputs": [
        {
          "internalType": "uint256[]",
          "name": "",
          "type": "uint256[]"
        }
      ],
      "payable": false,
      "stateMutability": "view",
      "type": "function"
    },
    {
      "constant": true,
      "inputs": [
        {
          "internalType": "uint256",
          "name": "_deliveryId",
          "type": "uint256"
        }
      ],
      "name": "getStatusIdsForDelivery",
      "outputs": [
        {
          "internalType": "uint256[]",
          "name": "",
          "type": "uint256[]"
        }
      ],
      "payable": false,
      "stateMutability": "view",
      "type": "function"
    },
    {
      "constant": true,
      "inputs": [
        {
          "internalType": "uint256",
          "name": "_deliveryId",
          "type": "uint256"
        },
        {
          "internalType": "uint256",
          "name": "_statusId",
          "type": "uint256"
        }
      ],
      "name": "returnStatus",
      "outputs": [
        {
          "components": [
            {
              "internalType": "uint256",
              "name": "statusId",
              "type": "uint256"
            },
            {
              "internalType": "enum TrackingChain.Status",
              "name": "status",
              "type": "uint8"
            },
            {
              "internalType": "uint256",
              "name": "time",
              "type": "uint256"
            },
            {
              "internalType": "string",
              "name": "localisation",
              "type": "string"
            },
            {
              "internalType": "string",
              "name": "info",
              "type": "string"
            }
          ],
          "internalType": "struct TrackingChain.DeliveryStatus",
          "name": "",
          "type": "tuple"
        }
      ],
      "payable": false,
      "stateMutability": "view",
      "type": "function"
    }
  ],
  "bytecode": "0x608060405234801561001057600080fd5b50336000806101000a81548173ffffffffffffffffffffffffffffffffffffffff021916908373ffffffffffffffffffffffffffffffffffffffff160217905550611058806100606000396000f3fe608060405234801561001057600080fd5b506004361061007d5760003560e01c8063a969815d1161005b578063a969815d14610112578063b1af248c1461012e578063b81f921e1461015e578063d0cc4db41461017a5761007d565b80630f1d6601146100825780632e4d2f21146100b257806378835dd9146100e2575b600080fd5b61009c60048036036100979190810190610c84565b610198565b6040516100a99190610e3b565b60405180910390f35b6100cc60048036036100c79190810190610bdc565b61035f565b6040516100d99190610e19565b60405180910390f35b6100fc60048036036100f79190810190610bdc565b6103cd565b6040516101099190610e5d565b60405180910390f35b61012c60048036036101279190810190610c05565b6103ee565b005b61014860048036036101439190810190610b49565b61057a565b6040516101559190610e5d565b60405180910390f35b61017860048036036101739190810190610c05565b610809565b005b610182610994565b60405161018f9190610e19565b60405180910390f35b6101a06109ec565b6002600084815260200190815260200160002060030160008381526020019081526020016000206040518060a0016040529081600082015481526020016001820160009054906101000a900460ff1660028111156101fa57fe5b600281111561020557fe5b815260200160028201548152602001600382018054600181600116156101000203166002900480601f0160208091040260200160405190810160405280929190818152602001828054600181600116156101000203166002900480156102ac5780601f10610281576101008083540402835291602001916102ac565b820191906000526020600020905b81548152906001019060200180831161028f57829003601f168201915b50505050508152602001600482018054600181600116156101000203166002900480601f01602080910402602001604051908101604052809291908181526020018280546001816001161561010002031660029004801561034e5780601f106103235761010080835404028352916020019161034e565b820191906000526020600020905b81548152906001019060200180831161033157829003601f168201915b505050505081525050905092915050565b6060600260008381526020019081526020016000206004018054806020026020016040519081016040528092919081815260200182805480156103c157602002820191906000526020600020905b8154815260200190600101908083116103ad575b50505050509050919050565b600181815481106103da57fe5b906000526020600020016000915090505481565b600060026000858152602001908152602001600020600401805490509050600260008581526020019081526020016000206004018190806001815401808255809150509060018203906000526020600020016000909192909190915055508060026000868152602001908152602001600020600301600083815260200190815260200160002060000181905550600160026000868152602001908152602001600020600301600083815260200190815260200160002060010160006101000a81548160ff021916908360028111156104c257fe5b02179055504260026000868152602001908152602001600020600301600083815260200190815260200160002060020181905550826002600086815260200190815260200160002060030160008381526020019081526020016000206003019080519060200190610534929190610a26565b50816002600086815260200190815260200160002060030160008381526020019081526020016000206004019080519060200190610573929190610a26565b5050505050565b6000806001805490509050806002600083815260200190815260200160002060000181905550856002600083815260200190815260200160002060010160006101000a81548173ffffffffffffffffffffffffffffffffffffffff021916908373ffffffffffffffffffffffffffffffffffffffff160217905550846002600083815260200190815260200160002060020160006101000a81548173ffffffffffffffffffffffffffffffffffffffff021916908373ffffffffffffffffffffffffffffffffffffffff1602179055506001819080600181540180825580915050906001820390600052602060002001600090919290919091505550600060026000838152602001908152602001600020600401805490509050600260008381526020019081526020016000206004018190806001815401808255809150509060018203906000526020600020016000909192909190915055508060026000848152602001908152602001600020600301600083815260200190815260200160002060000181905550600060026000848152602001908152602001600020600301600083815260200190815260200160002060010160006101000a81548160ff0219169083600281111561074a57fe5b021790555042600260008481526020019081526020016000206003016000838152602001908152602001600020600201819055508460026000848152602001908152602001600020600301600083815260200190815260200160002060030190805190602001906107bc929190610a26565b508360026000848152602001908152602001600020600301600083815260200190815260200160002060040190805190602001906107fb929190610a26565b508192505050949350505050565b6000600260008581526020019081526020016000206004018054905090506002600085815260200190815260200160002060040181908060018154018082558091505090600182039060005260206000200160009091929091909150555080600260008681526020019081526020016000206003016000838152602001908152602001600020600001819055506002806000868152602001908152602001600020600301600083815260200190815260200160002060010160006101000a81548160ff021916908360028111156108dc57fe5b0217905550426002600086815260200190815260200160002060030160008381526020019081526020016000206002018190555082600260008681526020019081526020016000206003016000838152602001908152602001600020600301908051906020019061094e929190610a26565b5081600260008681526020019081526020016000206003016000838152602001908152602001600020600401908051906020019061098d929190610a26565b5050505050565b606060018054806020026020016040519081016040528092919081815260200182805480156109e257602002820191906000526020600020905b8154815260200190600101908083116109ce575b5050505050905090565b6040518060a001604052806000815260200160006002811115610a0b57fe5b81526020016000815260200160608152602001606081525090565b828054600181600116156101000203166002900490600052602060002090601f016020900481019282601f10610a6757805160ff1916838001178555610a95565b82800160010185558215610a95579182015b82811115610a94578251825591602001919060010190610a79565b5b509050610aa29190610aa6565b5090565b610ac891905b80821115610ac4576000816000905550600101610aac565b5090565b90565b600081359050610ada81610fe7565b92915050565b600082601f830112610af157600080fd5b8135610b04610aff82610ea5565b610e78565b91508082526020830160208301858383011115610b2057600080fd5b610b2b838284610f87565b50505092915050565b600081359050610b4381610ffe565b92915050565b60008060008060808587031215610b5f57600080fd5b6000610b6d87828801610acb565b9450506020610b7e87828801610acb565b935050604085013567ffffffffffffffff811115610b9b57600080fd5b610ba787828801610ae0565b925050606085013567ffffffffffffffff811115610bc457600080fd5b610bd087828801610ae0565b91505092959194509250565b600060208284031215610bee57600080fd5b6000610bfc84828501610b34565b91505092915050565b600080600060608486031215610c1a57600080fd5b6000610c2886828701610b34565b935050602084013567ffffffffffffffff811115610c4557600080fd5b610c5186828701610ae0565b925050604084013567ffffffffffffffff811115610c6e57600080fd5b610c7a86828701610ae0565b9150509250925092565b60008060408385031215610c9757600080fd5b6000610ca585828601610b34565b9250506020610cb685828601610b34565b9150509250929050565b6000610ccc8383610dfb565b60208301905092915050565b6000610ce382610ee1565b610ced8185610f04565b9350610cf883610ed1565b8060005b83811015610d29578151610d108882610cc0565b9750610d1b83610ef7565b925050600181019050610cfc565b5085935050505092915050565b610d3f81610f75565b82525050565b6000610d5082610eec565b610d5a8185610f15565b9350610d6a818560208601610f96565b610d7381610fc9565b840191505092915050565b600060a083016000830151610d966000860182610dfb565b506020830151610da96020860182610d36565b506040830151610dbc6040860182610dfb565b5060608301518482036060860152610dd48282610d45565b91505060808301518482036080860152610dee8282610d45565b9150508091505092915050565b610e0481610f6b565b82525050565b610e1381610f6b565b82525050565b60006020820190508181036000830152610e338184610cd8565b905092915050565b60006020820190508181036000830152610e558184610d7e565b905092915050565b6000602082019050610e726000830184610e0a565b92915050565b6000604051905081810181811067ffffffffffffffff82111715610e9b57600080fd5b8060405250919050565b600067ffffffffffffffff821115610ebc57600080fd5b601f19601f8301169050602081019050919050565b6000819050602082019050919050565b600081519050919050565b600081519050919050565b6000602082019050919050565b600082825260208201905092915050565b600082825260208201905092915050565b6000610f3182610f4b565b9050919050565b6000819050610f4682610fda565b919050565b600073ffffffffffffffffffffffffffffffffffffffff82169050919050565b6000819050919050565b6000610f8082610f38565b9050919050565b82818337600083830152505050565b60005b83811015610fb4578082015181840152602081019050610f99565b83811115610fc3576000848401525b50505050565b6000601f19601f8301169050919050565b60038110610fe457fe5b50565b610ff081610f26565b8114610ffb57600080fd5b50565b61100781610f6b565b811461101257600080fd5b5056fea365627a7a723158202fe59ff5d474c991101ef28a275cc7e3401ef5593a0ff22f24fb91f4de953c906c6578706572696d656e74616cf564736f6c63430005100040",
  "source": "pragma solidity ^0.5.0;\r\npragma experimental ABIEncoderV2;\r\n\r\ncontract TrackingChain {\r\n    address owner;\r\n\r\n    constructor() public {\r\n        owner = msg.sender;\r\n    }\r\n\r\n    enum Status {\r\n        Prepared, //delivery is prepared to receive by deliverer\r\n        InDelivery, //deliverer took package\r\n        Delivered //delivery is ready to pick up\r\n    }\r\n\r\n    struct Delivery {\r\n        uint deliveryId;\r\n        address delivererAddress;\r\n        address receiverAddress;\r\n        // DeliveryStatus[] deliveryStatus;\r\n        mapping(uint => DeliveryStatus) deliveryStatus;\r\n        uint[] deliveryStatusIds;\r\n    }\r\n\r\n    struct DeliveryStatus {\r\n        uint statusId;\r\n        Status status;\r\n        uint time;\r\n        string localisation;\r\n        string info;\r\n    }\r\n\r\n    uint[] public deliveryIds;\r\n\r\n    mapping(uint => Delivery) deliveries;\r\n\r\n    event Prepared(uint deliveryId);\r\n    event InDelivery(uint deliveryId);\r\n    event UpdatedPackageStatus(uint deliveryId);\r\n    event Delivered(uint deliveryId);\r\n\r\n    function prepareDelivery(address _delivererAddress, address _receiverAddress, string memory _localisation, string memory _info) public returns(uint){\r\n        uint _deliveryId = deliveryIds.length;\r\n\r\n        deliveries[_deliveryId].deliveryId = _deliveryId;\r\n        deliveries[_deliveryId].delivererAddress = _delivererAddress;\r\n        deliveries[_deliveryId].receiverAddress = _receiverAddress;\r\n        deliveryIds.push(_deliveryId);\r\n\r\n        uint _statusId = deliveries[_deliveryId].deliveryStatusIds.length;\r\n        deliveries[_deliveryId].deliveryStatusIds.push(_statusId);\r\n        deliveries[_deliveryId].deliveryStatus[_statusId].statusId = _statusId;\r\n        deliveries[_deliveryId].deliveryStatus[_statusId].status = Status.Prepared;\r\n        deliveries[_deliveryId].deliveryStatus[_statusId].time = block.timestamp;\r\n        deliveries[_deliveryId].deliveryStatus[_statusId].localisation = _localisation;\r\n        deliveries[_deliveryId].deliveryStatus[_statusId].info = _info;\r\n\r\n        return _deliveryId;\r\n    }\r\n\r\n    function updateDeliveryStatus(uint _deliveryId, string memory _localisation, string memory _info) public{\r\n        uint _statusId = deliveries[_deliveryId].deliveryStatusIds.length;\r\n        deliveries[_deliveryId].deliveryStatusIds.push(_statusId);\r\n        deliveries[_deliveryId].deliveryStatus[_statusId].statusId = _statusId;\r\n        deliveries[_deliveryId].deliveryStatus[_statusId].status = Status.InDelivery;\r\n        deliveries[_deliveryId].deliveryStatus[_statusId].time = block.timestamp;\r\n        deliveries[_deliveryId].deliveryStatus[_statusId].localisation = _localisation;\r\n        deliveries[_deliveryId].deliveryStatus[_statusId].info = _info;\r\n    }\r\n\r\n    function deliveredStatus(uint _deliveryId, string memory _localisation, string memory _info) public {\r\n        uint _statusId = deliveries[_deliveryId].deliveryStatusIds.length;\r\n        deliveries[_deliveryId].deliveryStatusIds.push(_statusId);\r\n        deliveries[_deliveryId].deliveryStatus[_statusId].statusId = _statusId;\r\n        deliveries[_deliveryId].deliveryStatus[_statusId].status = Status.Delivered;\r\n        deliveries[_deliveryId].deliveryStatus[_statusId].time = block.timestamp;\r\n        deliveries[_deliveryId].deliveryStatus[_statusId].localisation = _localisation;\r\n        deliveries[_deliveryId].deliveryStatus[_statusId].info = _info;\r\n    }\r\n\r\n    function getDeliveryIds() public view returns(uint[] memory) {\r\n        return deliveryIds;\r\n    }\r\n\r\n    function getStatusIdsForDelivery(uint _deliveryId) public view returns(uint[] memory) {\r\n        return deliveries[_deliveryId].deliveryStatusIds;\r\n    }\r\n\r\n    function returnStatus(uint _deliveryId, uint _statusId) public view returns(DeliveryStatus memory){\r\n        return deliveries[_deliveryId].deliveryStatus[_statusId];\r\n    }\r\n}",
  "sourcePath": "D:\\Magisterka\\tracking-package\\contracts\\TrackingChain.sol",
  "compiler": {
    "name": "solc",
    "version": "0.5.16+commit.9c3226ce.Emscripten.clang"
  },
  "schemaVersion": "3.0.23",
  "updatedAt": "2022-05-06T21:53:39.717Z",
  "devdoc": {
    "methods": {}
  },
  "userdoc": {
    "methods": {}
  }
}