{
  "contractName": "TrackingChain",
  "abi": [
    {
      "inputs": [],
      "payable": false,
      "stateMutability": "nonpayable",
      "type": "constructor"
    },
    {
      "constant": true,
      "inputs": [
        {
          "internalType": "uint256",
          "name": "",
          "type": "uint256"
        }
      ],
      "name": "deliveryIds",
      "outputs": [
        {
          "internalType": "uint256",
          "name": "",
          "type": "uint256"
        }
      ],
      "payable": false,
      "stateMutability": "view",
      "type": "function"
    },
    {
      "constant": true,
      "inputs": [],
      "name": "generateId",
      "outputs": [
        {
          "internalType": "uint256",
          "name": "",
          "type": "uint256"
        }
      ],
      "payable": false,
      "stateMutability": "view",
      "type": "function"
    },
    {
      "constant": false,
      "inputs": [
        {
          "internalType": "address",
          "name": "_receiverAddress",
          "type": "address"
        },
        {
          "internalType": "string",
          "name": "_localisation",
          "type": "string"
        },
        {
          "internalType": "string",
          "name": "_info",
          "type": "string"
        }
      ],
      "name": "prepareDelivery",
      "outputs": [
        {
          "internalType": "uint256",
          "name": "",
          "type": "uint256"
        }
      ],
      "payable": false,
      "stateMutability": "nonpayable",
      "type": "function"
    },
    {
      "constant": false,
      "inputs": [
        {
          "internalType": "uint256",
          "name": "_deliveryId",
          "type": "uint256"
        },
        {
          "internalType": "string",
          "name": "_localisation",
          "type": "string"
        },
        {
          "internalType": "string",
          "name": "_info",
          "type": "string"
        }
      ],
      "name": "updateDeliveryStatus",
      "outputs": [],
      "payable": false,
      "stateMutability": "nonpayable",
      "type": "function"
    },
    {
      "constant": false,
      "inputs": [
        {
          "internalType": "uint256",
          "name": "_deliveryId",
          "type": "uint256"
        },
        {
          "internalType": "string",
          "name": "_localisation",
          "type": "string"
        },
        {
          "internalType": "string",
          "name": "_info",
          "type": "string"
        }
      ],
      "name": "deliveredStatus",
      "outputs": [],
      "payable": false,
      "stateMutability": "nonpayable",
      "type": "function"
    },
    {
      "constant": true,
      "inputs": [],
      "name": "getDeliveryIds",
      "outputs": [
        {
          "internalType": "uint256[]",
          "name": "",
          "type": "uint256[]"
        }
      ],
      "payable": false,
      "stateMutability": "view",
      "type": "function"
    },
    {
      "constant": true,
      "inputs": [],
      "name": "getReceiverDeliveryIds",
      "outputs": [
        {
          "internalType": "uint256[]",
          "name": "",
          "type": "uint256[]"
        }
      ],
      "payable": false,
      "stateMutability": "view",
      "type": "function"
    },
    {
      "constant": true,
      "inputs": [],
      "name": "getDelivererDeliveryIds",
      "outputs": [
        {
          "internalType": "uint256[]",
          "name": "",
          "type": "uint256[]"
        }
      ],
      "payable": false,
      "stateMutability": "view",
      "type": "function"
    },
    {
      "constant": true,
      "inputs": [
        {
          "internalType": "uint256",
          "name": "_deliveryId",
          "type": "uint256"
        }
      ],
      "name": "getStatusIdsForDelivery",
      "outputs": [
        {
          "internalType": "uint256[]",
          "name": "",
          "type": "uint256[]"
        }
      ],
      "payable": false,
      "stateMutability": "view",
      "type": "function"
    },
    {
      "constant": true,
      "inputs": [
        {
          "internalType": "uint256",
          "name": "_deliveryId",
          "type": "uint256"
        }
      ],
      "name": "getLastStatusIdsForDelivery",
      "outputs": [
        {
          "components": [
            {
              "internalType": "uint256",
              "name": "statusId",
              "type": "uint256"
            },
            {
              "internalType": "enum TrackingChain.Status",
              "name": "status",
              "type": "uint8"
            },
            {
              "internalType": "uint256",
              "name": "time",
              "type": "uint256"
            },
            {
              "internalType": "string",
              "name": "localisation",
              "type": "string"
            },
            {
              "internalType": "string",
              "name": "info",
              "type": "string"
            }
          ],
          "internalType": "struct TrackingChain.DeliveryStatus",
          "name": "",
          "type": "tuple"
        }
      ],
      "payable": false,
      "stateMutability": "view",
      "type": "function"
    },
    {
      "constant": true,
      "inputs": [
        {
          "internalType": "uint256",
          "name": "_deliveryId",
          "type": "uint256"
        },
        {
          "internalType": "uint256",
          "name": "_statusId",
          "type": "uint256"
        }
      ],
      "name": "returnStatus",
      "outputs": [
        {
          "components": [
            {
              "internalType": "uint256",
              "name": "statusId",
              "type": "uint256"
            },
            {
              "internalType": "enum TrackingChain.Status",
              "name": "status",
              "type": "uint8"
            },
            {
              "internalType": "uint256",
              "name": "time",
              "type": "uint256"
            },
            {
              "internalType": "string",
              "name": "localisation",
              "type": "string"
            },
            {
              "internalType": "string",
              "name": "info",
              "type": "string"
            }
          ],
          "internalType": "struct TrackingChain.DeliveryStatus",
          "name": "",
          "type": "tuple"
        }
      ],
      "payable": false,
      "stateMutability": "view",
      "type": "function"
    }
  ],
  "bytecode": "0x608060405234801561001057600080fd5b50336000806101000a81548173ffffffffffffffffffffffffffffffffffffffff021916908373ffffffffffffffffffffffffffffffffffffffff16021790555061178f806100606000396000f3fe608060405234801561001057600080fd5b50600436106100a95760003560e01c80637849a003116100715780637849a0031461017a57806378835dd9146101aa578063981521de146101da578063a969815d146101f8578063b81f921e14610214578063d0cc4db414610230576100a9565b80630f1d6601146100ae5780631a3548a5146100de578063279780fc146100fc5780632e4d2f211461012c5780636f8dcb3d1461015c575b600080fd5b6100c860048036036100c391908101906112e8565b61024e565b6040516100d59190611557565b60405180910390f35b6100e6610415565b6040516100f39190611515565b60405180910390f35b610116600480360361011191908101906111c1565b6104aa565b6040516101239190611579565b60405180910390f35b61014660048036036101419190810190611240565b61080c565b6040516101539190611515565b60405180910390f35b61016461087a565b6040516101719190611579565b60405180910390f35b610194600480360361018f9190810190611240565b6108b8565b6040516101a19190611557565b60405180910390f35b6101c460048036036101bf9190810190611240565b610af7565b6040516101d19190611579565b60405180910390f35b6101e2610b18565b6040516101ef9190611515565b60405180910390f35b610212600480360361020d9190810190611269565b610bad565b005b61022e60048036036102299190810190611269565b610ddd565b005b61023861100c565b6040516102459190611515565b60405180910390f35b610256611064565b6002600084815260200190815260200160002060030160008381526020019081526020016000206040518060a0016040529081600082015481526020016001820160009054906101000a900460ff1660028111156102b057fe5b60028111156102bb57fe5b815260200160028201548152602001600382018054600181600116156101000203166002900480601f0160208091040260200160405190810160405280929190818152602001828054600181600116156101000203166002900480156103625780601f1061033757610100808354040283529160200191610362565b820191906000526020600020905b81548152906001019060200180831161034557829003601f168201915b50505050508152602001600482018054600181600116156101000203166002900480601f0160208091040260200160405190810160405280929190818152602001828054600181600116156101000203166002900480156104045780601f106103d957610100808354040283529160200191610404565b820191906000526020600020905b8154815290600101906020018083116103e757829003601f168201915b505050505081525050905092915050565b6060600360003373ffffffffffffffffffffffffffffffffffffffff1673ffffffffffffffffffffffffffffffffffffffff1681526020019081526020016000208054806020026020016040519081016040528092919081815260200182805480156104a057602002820191906000526020600020905b81548152602001906001019080831161048c575b5050505050905090565b6000806104b561087a565b9050806002600083815260200190815260200160002060000181905550336002600083815260200190815260200160002060010160006101000a81548173ffffffffffffffffffffffffffffffffffffffff021916908373ffffffffffffffffffffffffffffffffffffffff160217905550846002600083815260200190815260200160002060020160006101000a81548173ffffffffffffffffffffffffffffffffffffffff021916908373ffffffffffffffffffffffffffffffffffffffff1602179055506001819080600181540180825580915050906001820390600052602060002001600090919290919091505550600060026000838152602001908152602001600020600401805490509050600260008381526020019081526020016000206004018190806001815401808255809150509060018203906000526020600020016000909192909190915055508060026000848152602001908152602001600020600301600083815260200190815260200160002060000181905550600060026000848152602001908152602001600020600301600083815260200190815260200160002060010160006101000a81548160ff0219169083600281111561067c57fe5b021790555042600260008481526020019081526020016000206003016000838152602001908152602001600020600201819055508460026000848152602001908152602001600020600301600083815260200190815260200160002060030190805190602001906106ee92919061109e565b5083600260008481526020019081526020016000206003016000838152602001908152602001600020600401908051906020019061072d92919061109e565b50600360003373ffffffffffffffffffffffffffffffffffffffff1673ffffffffffffffffffffffffffffffffffffffff168152602001908152602001600020829080600181540180825580915050906001820390600052602060002001600090919290919091505550600460008773ffffffffffffffffffffffffffffffffffffffff1673ffffffffffffffffffffffffffffffffffffffff16815260200190815260200160002082908060018154018082558091505090600182039060005260206000200160009091929091909150555081925050509392505050565b60606002600083815260200190815260200160002060040180548060200260200160405190810160405280929190818152602001828054801561086e57602002820191906000526020600020905b81548152602001906001019080831161085a575b50505050509050919050565b6000633b9aca004260405160200161089291906114fa565b6040516020818303038152906040528051906020012060001c816108b257fe5b06905090565b6108c0611064565b600080905060006002600085815260200190815260200160002060040180549050111561090757600160026000858152602001908152602001600020600401805490500390505b600060026000858152602001908152602001600020600401828154811061092a57fe5b906000526020600020015490506002600085815260200190815260200160002060030160008281526020019081526020016000206040518060a0016040529081600082015481526020016001820160009054906101000a900460ff16600281111561099157fe5b600281111561099c57fe5b815260200160028201548152602001600382018054600181600116156101000203166002900480601f016020809104026020016040519081016040528092919081815260200182805460018160011615610100020316600290048015610a435780601f10610a1857610100808354040283529160200191610a43565b820191906000526020600020905b815481529060010190602001808311610a2657829003601f168201915b50505050508152602001600482018054600181600116156101000203166002900480601f016020809104026020016040519081016040528092919081815260200182805460018160011615610100020316600290048015610ae55780601f10610aba57610100808354040283529160200191610ae5565b820191906000526020600020905b815481529060010190602001808311610ac857829003601f168201915b50505050508152505092505050919050565b60018181548110610b0457fe5b906000526020600020016000915090505481565b6060600460003373ffffffffffffffffffffffffffffffffffffffff1673ffffffffffffffffffffffffffffffffffffffff168152602001908152602001600020805480602002602001604051908101604052809291908181526020018280548015610ba357602002820191906000526020600020905b815481526020019060010190808311610b8f575b5050505050905090565b6002600084815260200190815260200160002060010160009054906101000a900473ffffffffffffffffffffffffffffffffffffffff1673ffffffffffffffffffffffffffffffffffffffff163373ffffffffffffffffffffffffffffffffffffffff1614610c51576040517f08c379a0000000000000000000000000000000000000000000000000000000008152600401610c4890611537565b60405180910390fd5b600060026000858152602001908152602001600020600401805490509050600260008581526020019081526020016000206004018190806001815401808255809150509060018203906000526020600020016000909192909190915055508060026000868152602001908152602001600020600301600083815260200190815260200160002060000181905550600160026000868152602001908152602001600020600301600083815260200190815260200160002060010160006101000a81548160ff02191690836002811115610d2557fe5b02179055504260026000868152602001908152602001600020600301600083815260200190815260200160002060020181905550826002600086815260200190815260200160002060030160008381526020019081526020016000206003019080519060200190610d9792919061109e565b50816002600086815260200190815260200160002060030160008381526020019081526020016000206004019080519060200190610dd692919061109e565b5050505050565b6002600084815260200190815260200160002060010160009054906101000a900473ffffffffffffffffffffffffffffffffffffffff1673ffffffffffffffffffffffffffffffffffffffff163373ffffffffffffffffffffffffffffffffffffffff1614610e81576040517f08c379a0000000000000000000000000000000000000000000000000000000008152600401610e7890611537565b60405180910390fd5b6000600260008581526020019081526020016000206004018054905090506002600085815260200190815260200160002060040181908060018154018082558091505090600182039060005260206000200160009091929091909150555080600260008681526020019081526020016000206003016000838152602001908152602001600020600001819055506002806000868152602001908152602001600020600301600083815260200190815260200160002060010160006101000a81548160ff02191690836002811115610f5457fe5b02179055504260026000868152602001908152602001600020600301600083815260200190815260200160002060020181905550826002600086815260200190815260200160002060030160008381526020019081526020016000206003019080519060200190610fc692919061109e565b5081600260008681526020019081526020016000206003016000838152602001908152602001600020600401908051906020019061100592919061109e565b5050505050565b6060600180548060200260200160405190810160405280929190818152602001828054801561105a57602002820191906000526020600020905b815481526020019060010190808311611046575b5050505050905090565b6040518060a00160405280600081526020016000600281111561108357fe5b81526020016000815260200160608152602001606081525090565b828054600181600116156101000203166002900490600052602060002090601f016020900481019282601f106110df57805160ff191683800117855561110d565b8280016001018555821561110d579182015b8281111561110c5782518255916020019190600101906110f1565b5b50905061111a919061111e565b5090565b61114091905b8082111561113c576000816000905550600101611124565b5090565b90565b6000813590506111528161171e565b92915050565b600082601f83011261116957600080fd5b813561117c611177826115c1565b611594565b9150808252602083016020830185838301111561119857600080fd5b6111a38382846116b4565b50505092915050565b6000813590506111bb81611735565b92915050565b6000806000606084860312156111d657600080fd5b60006111e486828701611143565b935050602084013567ffffffffffffffff81111561120157600080fd5b61120d86828701611158565b925050604084013567ffffffffffffffff81111561122a57600080fd5b61123686828701611158565b9150509250925092565b60006020828403121561125257600080fd5b6000611260848285016111ac565b91505092915050565b60008060006060848603121561127e57600080fd5b600061128c868287016111ac565b935050602084013567ffffffffffffffff8111156112a957600080fd5b6112b586828701611158565b925050604084013567ffffffffffffffff8111156112d257600080fd5b6112de86828701611158565b9150509250925092565b600080604083850312156112fb57600080fd5b6000611309858286016111ac565b925050602061131a858286016111ac565b9150509250929050565b600061133083836114c5565b60208301905092915050565b6000611347826115fd565b6113518185611620565b935061135c836115ed565b8060005b8381101561138d5781516113748882611324565b975061137f83611613565b925050600181019050611360565b5085935050505092915050565b6113a3816116a2565b82525050565b60006113b482611608565b6113be8185611631565b93506113ce8185602086016116c3565b6113d781611700565b840191505092915050565b60006113ef602183611642565b91507f6d7573742062652064656c697665726572206f662074686973207061636b616760008301527f65000000000000000000000000000000000000000000000000000000000000006020830152604082019050919050565b600060a08301600083015161146060008601826114c5565b506020830151611473602086018261139a565b50604083015161148660408601826114c5565b506060830151848203606086015261149e82826113a9565b915050608083015184820360808601526114b882826113a9565b9150508091505092915050565b6114ce81611698565b82525050565b6114dd81611698565b82525050565b6114f46114ef82611698565b6116f6565b82525050565b600061150682846114e3565b60208201915081905092915050565b6000602082019050818103600083015261152f818461133c565b905092915050565b60006020820190508181036000830152611550816113e2565b9050919050565b600060208201905081810360008301526115718184611448565b905092915050565b600060208201905061158e60008301846114d4565b92915050565b6000604051905081810181811067ffffffffffffffff821117156115b757600080fd5b8060405250919050565b600067ffffffffffffffff8211156115d857600080fd5b601f19601f8301169050602081019050919050565b6000819050602082019050919050565b600081519050919050565b600081519050919050565b6000602082019050919050565b600082825260208201905092915050565b600082825260208201905092915050565b600082825260208201905092915050565b600061165e82611678565b9050919050565b600081905061167382611711565b919050565b600073ffffffffffffffffffffffffffffffffffffffff82169050919050565b6000819050919050565b60006116ad82611665565b9050919050565b82818337600083830152505050565b60005b838110156116e15780820151818401526020810190506116c6565b838111156116f0576000848401525b50505050565b6000819050919050565b6000601f19601f8301169050919050565b6003811061171b57fe5b50565b61172781611653565b811461173257600080fd5b50565b61173e81611698565b811461174957600080fd5b5056fea365627a7a72315820232ca19dd9c8830810433d9e457c635ba1bdd2772c7c1b567ece4f24604726736c6578706572696d656e74616cf564736f6c63430005100040",
  "source": "pragma solidity ^0.5.0;\r\npragma experimental ABIEncoderV2;\r\n\r\ncontract TrackingChain {\r\n    address owner;\r\n\r\n    constructor() public {\r\n        owner = msg.sender;\r\n    }\r\n\r\n    function generateId() public view returns(uint){\r\n        return (uint(keccak256(abi.encodePacked(block.timestamp)))%1000000000);\r\n    }\r\n\r\n    enum Status {\r\n        Prepared, //delivery is prepared to receive by deliverer\r\n        InDelivery, //deliverer took package\r\n        Delivered //delivery is ready to pick up\r\n    }\r\n\r\n    struct Delivery {\r\n        uint deliveryId;\r\n        address delivererAddress;\r\n        address receiverAddress;\r\n        mapping(uint => DeliveryStatus) deliveryStatus;\r\n        uint[] deliveryStatusIds;\r\n    }\r\n\r\n    struct DeliveryStatus {\r\n        uint statusId;\r\n        Status status;\r\n        uint time;\r\n        string localisation;\r\n        string info;\r\n    }\r\n\r\n    uint[] public deliveryIds;\r\n\r\n    mapping(uint => Delivery) deliveries;\r\n\r\n    mapping(address => uint[]) delivererDeliveries;\r\n    mapping(address => uint[]) receiverDeliveries;\r\n\r\n    function prepareDelivery(address _receiverAddress, string memory _localisation, string memory _info) public returns(uint){\r\n        uint _deliveryId = generateId();\r\n\r\n        deliveries[_deliveryId].deliveryId = _deliveryId;\r\n        deliveries[_deliveryId].delivererAddress = msg.sender;\r\n        deliveries[_deliveryId].receiverAddress = _receiverAddress;\r\n        deliveryIds.push(_deliveryId);\r\n\r\n        uint _statusId = deliveries[_deliveryId].deliveryStatusIds.length;\r\n        deliveries[_deliveryId].deliveryStatusIds.push(_statusId);\r\n        deliveries[_deliveryId].deliveryStatus[_statusId].statusId = _statusId;\r\n        deliveries[_deliveryId].deliveryStatus[_statusId].status = Status.Prepared;\r\n        deliveries[_deliveryId].deliveryStatus[_statusId].time = block.timestamp;\r\n        deliveries[_deliveryId].deliveryStatus[_statusId].localisation = _localisation;\r\n        deliveries[_deliveryId].deliveryStatus[_statusId].info = _info;\r\n\r\n        delivererDeliveries[msg.sender].push(_deliveryId);\r\n        receiverDeliveries[_receiverAddress].push(_deliveryId);\r\n\r\n        return _deliveryId;\r\n    }\r\n\r\n    function updateDeliveryStatus(uint _deliveryId, string memory _localisation, string memory _info) public{\r\n        require(msg.sender == deliveries[_deliveryId].delivererAddress, 'must be deliverer of this package');\r\n        \r\n        uint _statusId = deliveries[_deliveryId].deliveryStatusIds.length;\r\n        deliveries[_deliveryId].deliveryStatusIds.push(_statusId);\r\n        deliveries[_deliveryId].deliveryStatus[_statusId].statusId = _statusId;\r\n        deliveries[_deliveryId].deliveryStatus[_statusId].status = Status.InDelivery;\r\n        deliveries[_deliveryId].deliveryStatus[_statusId].time = block.timestamp;\r\n        deliveries[_deliveryId].deliveryStatus[_statusId].localisation = _localisation;\r\n        deliveries[_deliveryId].deliveryStatus[_statusId].info = _info;\r\n    }\r\n\r\n    function deliveredStatus(uint _deliveryId, string memory _localisation, string memory _info) public {\r\n        require(msg.sender == deliveries[_deliveryId].delivererAddress, 'must be deliverer of this package');\r\n        \r\n        uint _statusId = deliveries[_deliveryId].deliveryStatusIds.length;\r\n        deliveries[_deliveryId].deliveryStatusIds.push(_statusId);\r\n        deliveries[_deliveryId].deliveryStatus[_statusId].statusId = _statusId;\r\n        deliveries[_deliveryId].deliveryStatus[_statusId].status = Status.Delivered;\r\n        deliveries[_deliveryId].deliveryStatus[_statusId].time = block.timestamp;\r\n        deliveries[_deliveryId].deliveryStatus[_statusId].localisation = _localisation;\r\n        deliveries[_deliveryId].deliveryStatus[_statusId].info = _info;\r\n    }\r\n\r\n    function getDeliveryIds() public view returns(uint[] memory) {\r\n        return deliveryIds;\r\n    }\r\n\r\n    function getReceiverDeliveryIds() public view returns(uint[] memory) {\r\n        return receiverDeliveries[msg.sender];\r\n    }\r\n\r\n    function getDelivererDeliveryIds() public view returns(uint[] memory) {\r\n        return delivererDeliveries[msg.sender];\r\n    }\r\n\r\n    function getStatusIdsForDelivery(uint _deliveryId) public view returns(uint[] memory) {\r\n        return deliveries[_deliveryId].deliveryStatusIds;\r\n    }\r\n\r\n    function getLastStatusIdsForDelivery(uint _deliveryId) public view returns(DeliveryStatus memory) {\r\n        uint id = 0;\r\n        if(deliveries[_deliveryId].deliveryStatusIds.length > 0) {\r\n            id = deliveries[_deliveryId].deliveryStatusIds.length-1;\r\n        }\r\n        uint statusId = deliveries[_deliveryId].deliveryStatusIds[id];\r\n        return deliveries[_deliveryId].deliveryStatus[statusId];\r\n    }\r\n\r\n    function returnStatus(uint _deliveryId, uint _statusId) public view returns(DeliveryStatus memory){\r\n        return deliveries[_deliveryId].deliveryStatus[_statusId];\r\n    }\r\n}",
  "sourcePath": "D:\\Magisterka\\tracking-package\\contracts\\TrackingChain.sol",
  "compiler": {
    "name": "solc",
    "version": "0.5.16+commit.9c3226ce.Emscripten.clang"
  },
  "schemaVersion": "3.0.23",
  "updatedAt": "2022-05-24T10:16:19.130Z",
  "networkType": "ethereum",
  "devdoc": {
    "methods": {}
  },
  "userdoc": {
    "methods": {}
  }
}